:100000000C942A000C9447000C9447000C94470071
:100010000C9447000C9447000C9447000C94470044
:100020000C9447000C94AF000C9447000C944700CC
:100030000C9447000C9447000C9447000C94470024
:100040000C9447000C9447000C9447000C94470014
:100050000C94470011241FBECFE5D4E0DEBFCDBF16
:1000600010E0A0E6B0E0ECE2F7E002C005900D92EF
:10007000A436B107D9F710E0A4E6B0E001C01D92A4
:10008000A836B107E1F70E945C030C9494030C942A
:10009000000011B882E080B90895982F84EA86BFE5
:1000A00006B607FEFDCF81B1887F883011F080E071
:1000B000089593B984E886BF06B607FEFDCF81B1E7
:1000C000887F883111F481E00895803211F083E057
:1000D000089582E00895982F84EA86BF06B607FE49
:1000E000FDCF81B1887F803111F080E0089593B910
:1000F00084E886BF06B607FEFDCF81B1887F8034D5
:1001000011F481E00895883411F083E0089582E0CD
:10011000089583B984E886BF06B607FEFDCF81B196
:10012000887F883211F480E00895803311F082E0F6
:10013000089581E0089584EC86BF06B607FEFDCFE2
:1001400083B1089584E886BF06B607FEFDCF83B16C
:10015000089584E986BF06B604FCFDCF08951F927A
:100160000F920FB60F9211242F933F934F935F93EB
:100170006F937F938F939F93AF93BF93EF93FF936F
:10018000E0916400F0916500309709F00995FF91C6
:10019000EF91BF91AF919F918F917F916F915F91FF
:1001A0004F913F912F910F900FBE0F901F90189578
:1001B000FC018081813051F0813028F0823061F083
:1001C000833099F40CC083B78F7B02C083B78064FF
:1001D00083BF83B7877F08C083B78F7B02C083B795
:1001E000806483BF83B7886083BF93B78181982B76
:1001F00082818295807F892B83BF89B7816089BF87
:10020000789408959093650080936400089582BF68
:1002100008958CBF089523B7FC0181818295807F6A
:10022000822B83BF089583B7886F83BF0895AB0186
:10023000BC0120E030E082B7873018F012BE2F5F9B
:100240003F4FC901AA2797FDA095BA2F841795079C
:10025000A607B70780F3089582E08BB988E18AB9D1
:1002600086E880BD10BC87E689B908955D9BFECF06
:100270008CB908955F9BFECF8CB1089520E004C037
:100280005D9BFECFECB92F5FFC01E20FF11DE08119
:10029000EE23B1F70895DC015F9BFECF8CB18C9308
:1002A00090E008C09F5F5F9BFECF8CB1FD01E90F1E
:1002B000F11D8083FD01E90FF11D8081833291F7EB
:1002C00010820895AC0120E030E0FA01E20FF31F44
:1002D000DB01A20FB31F90818C91981711F081E080
:1002E00008952F5F3F4F2630310579F780E008955C
:1002F0000F931F93CF93DF938C0180EA0E944D00F0
:1003000080E00E94890081EA0E946B00C0E0D0E09A
:100310000E949B00F801EC0FFD1F80832196C530E1
:10032000D105B1F70E94A2000E94A900DF91CF91F0
:100330001F910F9108950F931F93CF93DF938C011B
:1003400080EA0E944D0080E00E948900C0E0D0E079
:10035000F801EC0FFD1F80810E9489002196C630B4
:10036000D105B1F70E94A900DF91CF911F910F91A4
:100370000895EF92FF920F931F93DF93CF93CDB722
:10038000DEB72E970FB6F894DEBF0FBECDBF87E065
:100390007E010894E11CF11CF701982F11929A95A7
:1003A000E9F78E01085F1F4FF80111928A95E9F76E
:1003B00080E49CE90197F1F7C8010E944B01C70155
:1003C0000E94780120E030E0B701A801FB01E20FB4
:1003D000F31FDA01A20FB31F90818C91981711F0CF
:1003E00001E006C02F5F3F4F2630310579F700E06E
:1003F00080916700823090F01092670086E10E9441
:100400003601DA9A60E67AEE80E090E00E94170109
:1004100081E10E943601DA980E9449020023B1F47A
:1004200085E10E9436018E01085F1F4FC8010E94BE
:100430004B01C8010E949B0180E49CE90197F1F700
:1004400081E10E9436010E94490216C087E10E94A4
:10045000360180E29EE428EC30E0F9013197F1F7B3
:100460000197D9F7809167008F5F8093670083E1E0
:100470000E9436010E94B9012E960FB6F894DEBF95
:100480000FBECDBFCF91DF911F910F91FF90EF90E5
:1004900008950E943A01823119F08331D1F703C0E7
:1004A0000E94B90108950E9456020895EF92FF92AA
:1004B0000F931F93DF93CF93CDB7DEB72E970FB671
:1004C000F894DEBF0FBECDBF80E49CE90197F1F741
:1004D00088E0E82EF12CEC0EFD1EC7010E944B01B6
:1004E0008E010F5F1F4FC8010E94780120E030E0AD
:1004F000B701A801FB01E20FF31FDA01A20FB31F3E
:1005000090818C91981711F001E006C02F5F3F4F4A
:100510002630310579F700E080916600823090F056
:100520001092660086E10E943601DA9A60E67AEE61
:1005300080E090E00E94170181E10E943601DA9884
:100540000E944902002319F51092660085E10E947D
:100550003601D89AD9988FEF9FEF28EC30E0F90157
:100560003197F1F70197D9F7D99AD8988FEF9FEF84
:1005700028EC30E0F9013197F1F70197D9F7D898D5
:10058000D99881E10E9436010E94490216C087E194
:100590000E94360180E29EE428EC30E0F9013197B8
:1005A000F1F70197D9F7809166008F5F809366001D
:1005B00083E10E9436010E9456022E960FB6F894EF
:1005C000DEBF0FBECDBFCF91DF911F910F91FF9086
:1005D000EF900895EF92FF920F931F93DF93CF93C5
:1005E000CDB7DEB764970FB6F894DEBF0FBECDBFB0
:1005F0007E010894E11CF11CC7010E944B01C70158
:100600000E949B0180E49CE90197F1F78E01055F50
:100610001F4FC8010E947801C8010E944B0120E0D1
:1006200030E0B801A701FB01E20FF31FDA01A20FCE
:10063000B31F90818C91981731F42F5F3F4F263074
:10064000310589F706C087E10E9436010E94EA025F
:1006500005C084E10E9436010E94490264960FB6EB
:10066000F894DEBF0FBECDBFCF91DF911F910F91E8
:10067000FF90EF9008951F9380EA0E944D0080E064
:100680000E94890081EA0E946B000E94A200182F3C
:100690000E94A900812F1F9108951F93182F80EAAF
:1006A0000E944D0080E00E948900812F0E948900F5
:1006B0000E94A9001F9108950F931F93DF93CF937A
:1006C00000D00F92CDB7DEB78FEF8ABBDE01119657
:1006D000E0E6F0E083E001900D928150E1F7CE0179
:1006E00001960E94D8000E942C010E9449000E949D
:1006F0003B0380538A3018F081E40E944D0300E5EB
:1007000013ECC8010197F1F70E943B03813431F4E7
:1007100080E10E9436010E94EA02F3CF81E10E944B
:0C07200036010E944902EDCFF894FFCF93
:04072C0000050000C4
:00000001FF
