:100000000C94A7000C94C4000C94C4000C94C4007D
:100010000C94C4000C94C4000C94C4000C94C40050
:100020000C94C4000C94AE010C94C4000C94C40055
:100030000C94C4000C94C4000C94C4000C94C40030
:100040000C94C4000C94C4000C94C4000C94C40020
:100050000C94C40000407A10F35A00A0724E1809A4
:100060000010A5D4E80000E87648170000E40B541F
:10007000020000CA9A3B000000E1F50500008096EE
:100080009800000040420F000000A0860100000020
:10009000102700000000E8030000000064000000DA
:1000A00000000A00000000000100000000002C76A3
:1000B000D888DC674F0823DFC1DFAE59E1B1B796BE
:1000C000E5E3E453C63AE651997696E8E6C284261B
:1000D000EB898C9B62ED407C6FFCEFBC9C9F40F2F7
:1000E000BAA56FA5F490055A2AF75C936B6CF96773
:1000F0006DC11BFCE0E40D47FEF520E6B500D0ED38
:10010000902E0300943577050080841E080000209F
:100110004E0A000000C80C333333330F986E12833D
:100120001141EF8D2114893BE65516CFFEE6DB1811
:10013000D1844B381BF77C1D901DA4BBE4242032D6
:1001400084725E228100C9F124ECA1E53D271124CF
:100150001FBECFE5D4E0DEBFCDBF11E0A0E6B0E02A
:10016000EAEDF1E102C005900D92A033B107D9F795
:1001700011E0A0E3B1E001C01D92A233B107E1F7A5
:100180000E94F1050C94EB080C940000D898D998C3
:1001900040ED57E0FA013197F1F7DA9AFA01319719
:1001A000F1F79BB3282F207F9F70292B2BBBFA01DF
:1001B0003197F1F7DA98FA013197F1F7DA9AFA0103
:1001C0003197F1F79BB38295807F9F70982B9BBBF3
:1001D000CA010197F1F7DA98CA010197F1F708957A
:1001E0008AB38FEF8ABBDA9880EA9FE00197F1F734
:1001F00082E00E94C60088EC90E00197F1F788E267
:100200000E94C6008CE00E94C60081E00E94C600E9
:100210000895D89AD99840ED57E0FA013197F1F74F
:10022000DA9AFA013197F1F79BB3282F207F9F705C
:10023000292B2BBBFA013197F1F7DA98FA013197A4
:10024000F1F7DA9AFA013197F1F79BB38295807F43
:100250009F70982B9BBBCA010197F1F7DA98CA01EE
:100260000197F1F70895DF93CF9300D000D0CDB779
:10027000DEB790E8998390EC9A8390E99B8390EDA8
:100280009C836150FE01E80FF11D8081860F0E9462
:10029000C60088EC90E00197F1F70F900F900F9057
:1002A0000F90CF91DF910895CF93DF93EC0103C0BE
:1002B0000E940901219688818823D1F7DF91CF918F
:1002C000089581E00E94C6000895EF92FF920F9377
:1002D0001F93DF93CF93CDB7DEB760970FB6F89437
:1002E000DEBF0FBECDBF50E030E07E010894E11CC0
:1002F000F11C87010E941406C7010E9454016096F8
:100300000FB6F894DEBF0FBECDBFCF91DF911F9126
:100310000F91FF90EF9008950F931F93DF93CF936A
:10032000CDB7DEB760970FB6F894DEBF0FBECDBF76
:100330008E010F5F1F4FB8014AE050E00E94350662
:10034000C8010E94540160960FB6F894DEBF0FBE3C
:10035000CDBFCF91DF911F910F9108951F920F9202
:100360000FB60F9211242F933F934F935F936F9388
:100370007F938F939F93AF93BF93EF93FF93E091FE
:100380003001F0913101309709F00995FF91EF911B
:10039000BF91AF919F918F917F916F915F914F919D
:1003A0003F912F910F900FBE0F901F901895FC0159
:1003B0008081813051F0813028F0823061F08330CB
:1003C00099F40CC083B78F7B02C083B7806483BF6E
:1003D00083B7877F08C083B78F7B02C083B78064F1
:1003E00083BF83B7886083BF93B78181982B828155
:1003F0008295807F892B83BF89B7816089BF78947C
:1004000008959093310180933001089582BF08953B
:100410008CBF089523B7FC0181818295807F822B58
:1004200083BF089583B7886F83BF0895AB01BC0174
:1004300020E030E082B7873018F012BE2F5F3F4FC8
:10044000C901AA2797FDA095BA2F84179507A6077B
:10045000B70780F3089582E08BB988E18AB986E80E
:1004600080BD10BC87E689B908955D9BFECF8CB92D
:1004700008955F9BFECF8CB1089520E004C05D9B82
:10048000FECFECB92F5FFC01E20FF11DE081EE23FE
:10049000B1F70895DC015F9BFECF8CB18C9390E0A7
:1004A00008C09F5F5F9BFECF8CB1FD01E90FF11D7E
:1004B0008083FD01E90FF11D8081833291F7108265
:1004C000089540E060E0E0E1F0E001C0462FCF0198
:1004D000042E02C0880F991F0A94E2F787BB80950B
:1004E00088BB20E030E086B390E0022E02C09595F4
:1004F00087950A94E2F780FD57C041E050E0022E54
:1005000002C0440F551F0A94E2F786B390E084239B
:100510009523892BD1F3862F8F5F220F331F220F54
:10052000331F820F883081F1893080F4843021F1CB
:10053000853038F48230D1F08330E0F4813099F5A1
:1005400017C08630E9F08730E8F418C08C3021F10C
:100550008D3028F48A30E1F08B30E0F417C08F3012
:10056000F9F08031F9F08E30F1F418C088E0089588
:1005700087E0089589E0089585E2089584E008956C
:1005800085E0089586E008958AE2089581E008955F
:1005900082E0089583E008958DE2089580E0089553
:1005A0008DE308958BE208952F5F3F4F243031058E
:1005B00009F099CF642F6F5F643008F487CF40E073
:1005C00060E085CF4F925F926F927F928F929F9261
:1005D000AF92BF92CF92DF92EF92FF920F931F9351
:1005E000CF93DF93EC0110E0A5E38A2EF8ECEF2E19
:1005F000F12CE8E37E2E79E3672E66E3562E57E36F
:10060000452E42E3D42E33E3C32E24E3B22E90E3EF
:10061000A92E81E3982E0E946102853009F47AC0E8
:10062000863098F4823009F4B4C0833038F48823DB
:1006300009F4D9C0813009F0FCC096C0833009F4B8
:10064000BDC0843009F0F5C050C0883021F1893038
:1006500038F4863009F473C0873009F0EAC006C068
:10066000893071F18D3309F0E4C0D9C0012F0F5FDB
:1006700082E0602F0E943301FE01E10FF11D4082F4
:1006800087E30E94090184EC99E0F7013197F1F7C3
:100690000197D9F7BCC0012F0F5F82E0602F0E9445
:1006A0003301FE01E10FF11D708288E30E94090110
:1006B00084EC99E0F7013197F1F70197D9F7A7C0DA
:1006C000012F0F5F82E0602F0E943301FE01E10FD6
:1006D000F11D608289E30E94090184EC99E0F70131
:1006E0003197F1F70197D9F792C0012F0F5F82E0A0
:1006F000602F0E943301FE01E10FF11DB08284E3FF
:100700000E94090184EC99E0F7013197F1F7019714
:10071000D9F77DC0012F0F5F82E0602F0E94330167
:10072000FE01E10FF11D808285E30E94090184EC46
:1007300099E0F7013197F1F70197D9F768C0012FD8
:100740000F5F82E0602F0E943301FE01E10FF11D77
:10075000508286E30E94090184EC99E0F701319709
:10076000F1F70197D9F753C0012F0F5F82E0602F97
:100770000E943301FE01E10FF11D908281E30E948E
:10078000090184EC99E0F7013197F1F70197D9F766
:100790003EC0012F0F5F82E0602F0E943301FE01F7
:1007A000E10FF11DD08282E30E94090184EC99E0FF
:1007B000F7013197F1F70197D9F729C0012F0F5FA2
:1007C00082E0602F0E943301FE01E10FF11DC08223
:1007D00083E30E94090184EC99E0F7013197F1F776
:1007E0000197D9F714C0012F0F5F82E0602F0E949C
:1007F0003301FE01E10FF11DA08280E30E94090197
:1008000084EC99E0F7013197F1F70197D9F782E08D
:10081000602F0E94330188E50E9409010BC0612FFF
:100820006F5F82E00E943301C10FD11D83E2888394
:1008300005C0012F063010F4102FEDCEDF91CF91BF
:100840001F910F91FF90EF90DF90CF90BF90AF90EE
:100850009F908F907F906F905F904F9008950F932F
:100860001F93DF93CF93CDB7DEB72E970FB6F894D3
:10087000DEBF0FBECDBF87E08E010F5F1F4FD801D7
:10088000E82F1D92EA95E9F7FE013896DF011D92E7
:100890008A95E9F70E94610181E061E00E943301DD
:1008A00080E690E00E94540182E061E00E94330102
:1008B000C8010E94E2021886C8010E943D020E94FF
:1008C00039028531A1F50E94610181E061E00E9459
:1008D000330184E790E00E94540180E197E228EC24
:1008E00030E0F9013197F1F70197D9F70E946101E2
:1008F00081E061E00E94330182E890E00E945401AF
:1009000082E061E00E9433018E01085F1F4FC80141
:100910000E94E2021F86C8010E943D020E946101FE
:1009200081E061E00E94330186E990E027C08731D1
:1009300099F40E94610181E061E00E94330185EA3F
:1009400090E00E9454010E943902833109F50E940F
:1009500061010E942F041CC08631D1F40E94610104
:1009600081E063E00E9433018FEA90E00E9454012D
:1009700082E063E00E9433018FEA90E00E9454011C
:100980000E943902813121F40E9461010E94D30446
:100990002E960FB6F894DEBF0FBECDBFCF91DF917C
:1009A0001F910F91089581E061E00E94330180EC76
:1009B00090E00E94540182E061E00E9433018EECDD
:1009C00090E00E9454010E9461028B3219F08D3236
:1009D00051F708C00E94610182E10E9435020E9425
:1009E0002F0408950E94610183E10E9435020E9454
:1009F000FA0408950F931F93DF93CF93CDB7DEB71B
:100A000027970FB6F894DEBF0FBECDBF8E010F5FE4
:100A10001F4F87E0F80111928A95E9F781E061E0C4
:100A20000E9433018AED90E00E94540182E061E06F
:100A30000E943301C8010E94E2021886C8010E9488
:100A40003D020E943902853149F40E94610181E032
:100A500061E00E94330189EE90E027C0873199F46C
:100A60000E94610181E061E00E94330185EA90E02B
:100A70000E9454010E943902833109F50E946101EC
:100A80000E94FA041CC08631D1F40E94610181E009
:100A900063E00E9433018FEA90E00E94540182E0FB
:100AA00063E00E9433018FEA90E00E9454010E94AB
:100AB0003902813121F40E9461010E94D3042796FA
:100AC0000FB6F894DEBF0FBECDBFCF91DF911F915F
:100AD0000F9108950F931F93DF93CF93CDB7DEB798
:100AE0002E970FB6F894DEBF0FBECDBF81E061E058
:100AF0000E94330182E890E00E94540182E061E0AC
:100B00000E9433018E010F5F1F4FC8010E94E20255
:100B10001886C8010E943D020E94610181E061E0E7
:100B20000E9433018EEF90E00E94540182E061E068
:100B30000E9433018E01085F1F4FC8010E94E2022C
:100B40001F86C8010E943D0280E49CE90197F1F7ED
:100B50000E9439028431C9F481E10E9435020E9469
:100B6000610181E061E00E94330183E191E00E9434
:100B7000540180E197E228EC30E0F9013197F1F778
:100B80000197D9F70E94D30421C08731F9F40E945C
:100B9000610181E061E00E94330181E291E00E9405
:100BA000540182E061E00E94330185EA90E00E94F6
:100BB000540188E893E128EC30E0F9013197F1F72E
:100BC0000197D9F70E9461010E946A052E960FB61F
:100BD000F894DEBF0FBECDBFCF91DF911F910F9173
:100BE0000895DF93CF9300D00F92CDB7DEB7DE012B
:100BF0001196ECE2F1E083E001900D928150E1F773
:100C0000CE0101960E94D7010E942B020E94F000A3
:100C10000E943902813119F40E94D304F9CF803146
:100C2000B9F70E946A05F4CFEF92FF920F931F93DA
:100C3000F22FF02E47FD02C0E4E001C0E4E1242FD2
:100C4000332727FD309537FF03C0309521953F4F5F
:100C50004F2D512F0F2FEE2E0E9456068F2D912FC4
:100C60001F910F91FF90EF900895FB019F01E89471
:100C70004230C4F04532B4F44A3029F497FB1EF4F4
:100C8000909581959F4F642F77270E94A008805DE3
:100C90008A330CF0895D8193CB010097A1F716F49C
:100CA0005DE251931082C9010C949008A9E0B0E074
:100CB000ECE5F6E00C94B8086A01122FA02EBE2CC9
:100CC0002BE3201718F42CE3922E02C0902E93945D
:100CD000AE014F5F5F4F27E0092D0E94B807BC01AE
:100CE0008981E82EFF24C70189709070019711F463
:100CF000ADE209C0B1FE02C0ABE205C0B0FC02C06B
:100D0000A0E001C0A0E2E3FE3BC0AA2311F423E06F
:100D100001C024E0211710F020E002C0121B212F97
:100D2000EB2CB4FE02C0322F0AC0F601322F80E253
:100D300002C0819331503323E1F7C20ED11CAA23A4
:100D400019F0F601A1936F01F6013196E2FE05C09C
:100D50009EE4D6019C9381E404C09EE6D6019C9358
:100D600081E611968C9391833296DF01832F90E276
:100D700002C09D9381508823E1F7E30FF11D40C02D
:100D8000E2FE42C0AA2311F423E001C024E02117AF
:100D900010F020E002C0121B212FEB2CB4FE02C089
:100DA000922F0AC0F601922F80E202C081939150E7
:100DB0009923E1F7C20ED11CAA2319F0F601A193E1
:100DC0006F01F6013196E2FE08C089E4D6018C93EA
:100DD0008EE411968C9386E407C089E6D6018C9345
:100DE0008EE611968C9386E681833296DF01892FF9
:100DF00020E202C02D9381508823E1F7E90FF11D15
:100E000010822EEF3FEFAFC0161617061CF041E020
:100E100050E003C0AB014F5F5F4FAA2019F480E0A0
:100E200090E003C08A2D90E0019620E030E0AA23F4
:100E300011F021E030E0240F351F280F391F812FDA
:100E400090E02817390714F020E002C0121B212F70
:100E50004B2D50E0CA0180719070B4FC0DC0B3FC02
:100E60000BC0F601322F40E202C0419331503323D0
:100E7000E1F7C20ED11C01C0322FAA2319F0F601EE
:100E8000A1936F01892B11F0132F0AC0F601132FC4
:100E900080E302C0819311501123E1F7C30ED11CEE
:100EA000092D060FBA8090E1892E912C8E209F206B
:100EB000E4FE04C0F1E3BF1609F40150101614F06B
:100EC00001E003C0093008F008E09B0177FF02C091
:100ED00020E030E0CB010196821B930BFE0131969E
:100EE000E80FF91F8EE2F82E3B01601A71088A2D77
:100EF00090E044275527481B590B8FEF2F3F3807A9
:100F000019F4D601FD926D01621773072CF0621679
:100F1000730614F4808101C080E321503040319683
:100F20002417350724F0D6018D936D01E6CF2617DF
:100F3000370749F4B5E3BB1528F0BB1621F481143B
:100F4000910409F481E3F6018193D601812F90E2A7
:100F500002C09C93815011968823D9F7E10FF11DAF
:100F6000108220E030E0C9012996EEE00C94D4080C
:100F7000283008F027E03327DA01990F311D87FD6B
:100F8000916000966105710539F432602E5F3D93E2
:100F900030E32A95E1F708959F3F30F080387105DE
:100FA000610509F03C5F3C5F3D93913008F080683B
:100FB000911DDF93CF931F930F93FF92EF92192F01
:100FC000987F9695E92F96959695E90FFF27E2551C
:100FD000FF4F99273327EE24FF24A701E70105904F
:100FE0000894079428F4360FE71EF81E491F511D78
:100FF000660F771F881F991F0694A1F70590079425
:1010000028F4E70EF81E491F561FC11D770F881FD1
:10101000991F661F0694A1F70590079428F4F80E0F
:10102000491F561FC71FD11D880F991F661F771FA5
:101030000694A1F70590079420F4490F561FC71F87
:10104000D81F990F661F771F881F0694A9F78491F0
:101050001095177041F0D695C79557954795F79419
:10106000E7941A95C1F7E4E5F0E0689415901591BE
:1010700035916591959105907FE27395E118F10A9C
:10108000430B560BC90BD009C0F7E10CF11E431FEF
:10109000561FC91FD01D7EF4703311F48A95E6CF18
:1010A000E894015030F0080F0AF40027021708F402
:1010B000202F2395022F7A3328F079E37D932A9508
:1010C000E9F710C07D932A9589F606949795679560
:1010D000379517951794E118F10A430B560BC90B76
:1010E000D00998F023957E9173957A3308F070E3D8
:1010F0007C932013B8F77E9170617D9330F08395D7
:1011000071E37D9370E32A95E1F71124EF90FF904E
:101110000F911F91CF91DF91992787FD90950895A9
:10112000DC01FC01672F71917723E1F7329704C04E
:101130007C916D9370836291AE17BF07C8F30895D9
:10114000AA1BBB1B51E107C0AA1FBB1FA617B707ED
:1011500010F0A61BB70B881F991F5A95A9F7809509
:101160009095BC01CD0108952F923F924F925F92CE
:101170006F927F928F929F92AF92BF92CF92DF92A7
:10118000EF92FF920F931F93CF93DF93CDB7DEB70C
:10119000CA1BDB0B0FB6F894DEBF0FBECDBF0994A0
:1011A0002A88398848885F846E847D848C849B84F7
:1011B000AA84B984C884DF80EE80FD800C811B8105
:1011C000AA81B981CE0FD11D0FB6F894DEBF0FBE34
:0A11D000CDBFED010895F894FFCFA4
:1011DA00656E74657220746865206F6C6420706136
:1011EA0073733A0070617373206973207269676858
:1011FA007400656E74657220746865206E65772068
:10120A00706173733A00706173732068617320733D
:10121A00617665640074727920616761696E003372
:10122A0074696D65206572726F722E2E2E2E2E00D5
:10123A002B3A6368616E67652070617373002D3A9B
:10124A006F70656E20646F6F7200656E74657220D0
:10125A00746865207061737300646F6F72206973BC
:10126A00206F70656E696E673E3E3E3E3E00726557
:10127A007065617420746865206E6577207061738B
:10128A00733A0070617373206861732073617665C5
:10129A000070617373206572726F7200000500003E
:00000001FF
